:020000040800F2
:10000000F00600209D010008F31D0008191B0008E0
:10001000F11D00087D070008DD2400080000000035
:100020000000000000000000000000009B1E00080F
:100030007F07000800000000991E00089D1E0008B0
:10004000B7010008B7010008B7010008B7010008B0
:10005000B7010008B7010008B7010008B7010008A0
:10006000B7010008B7010008B7010008B701000890
:10007000B7010008B7010008B7010008B701000880
:10008000B7010008B7010008B7010008B701000870
:10009000B7010008B7010008B7010008B701000860
:1000A000411F0008B7010008B7010008B7010008A8
:1000B000B7010008B7010008B7010008B701000840
:1000C000B7010008B7010008B7010008B701000830
:1000D000B7010008D1240008B7010008B7010008E3
:1000E000B7010008B7010008B7010008B701000810
:1000F000B7010008B7010008B7010008B701000800
:10010000B7010008B7010008B7010008B7010008EF
:10011000B7010008B7010008B7010008B7010008DF
:10012000B7010008B7010008B7010008B7010008CF
:10013000B7010008B7010008B7010008B7010008BF
:10014000B7010008B7010008B7010008B7010008AF
:10015000B7010008B7010008B7010008B70100089F
:10016000B7010008B7010008B7010008B70100088F
:10017000B7010008B7010008B7010008000000003F
:10018000B7010008B7010008DFF80CD000F0E4FA6E
:1001900000480047AD2F0008F006002006488047C1
:1001A00006480047FEE7FEE7FEE7FEE7FEE7FEE75C
:1001B000FEE7FEE7FEE7FEE7251F000889010008CD
:1001C0002DE9F05F0546002092469B46884606468C
:1001D000814640241BE0284641464746224600F01F
:1001E00099F953465A46C01A914110D31146184600
:1001F000224600F080F92D1A67EB01084F4622468F
:100200000120002100F077F917EB00094E41201E74
:10021000A4F10104DFDC484631462A464346BDE8E6
:10022000F09FD2B201E000F8012B491EFBD27047CB
:100230000022F6E710B513460A4604461946FFF7B2
:10024000F0FF204610BD2DE9FE4F804681EA0300F5
:10025000C00F0C46009021F0004123F00045B8EBA0
:100260000200A94105D24046214690461C460B4655
:10027000024623F00040104347D0270DC7F30A0081
:10028000C3F30A510290401A019040286BDAC3F37D
:10029000130040F4801B0098924620B10023D2EB5B
:1002A000030A63EB0B0B01985946C0F1400250461C
:1002B00000F021F906460D4650465946019A00F0D5
:1002C00039F910EB08006141002487EA115284EAF1
:1002D000E7731A4340D0009A62B3019A012A4FEAA9
:1002E000075215DC001B61EB02014FF0004202EAED
:1002F0000752CDE90042001C41F5801132462B46E1
:1003000000F039F903B0BDE8F08F40462146F9E727
:10031000001B61EB0201001C41F5801300185B41DA
:100320002018A2F5001747EB030140EAD570B61973
:100330006D4111E06D084FEA360645EAC0754FEA97
:100340000752001B61EB0201001C41F580114908B6
:100350004FEA30000019514132462B4603B0BDE848
:10036000F04F00F0F9B80098012240000023D0EBD4
:10037000020263EBE073009821464FEAE074B8EBA9
:10038000000061EB0401E9E783F000435BE781F0E3
:10039000004158E72DE9F04D81EA030404F0004BD9
:1003A00021F0004514464FF0000A23F0004150EAC6
:1003B000050220D054EA01021DD0C5F30A570246B7
:1003C000C5F31303C1F31300C1F30A5640F48015BB
:1003D00043F48013A7EB0608101BD64608F2FD383D
:1003E00073EB050002D308F1010801E092185B41AC
:1003F000B8F1000F03DA00200146BDE8F08D0020BF
:100400004FF48011064684460EE0171B73EB050778
:1004100005D3121B63EB050306434CEA010C4908A4
:100420004FEA300092185B4150EA0107EDD152EAE1
:10043000030012D082EA040083EA0501084305D0D4
:10044000101BAB4106D20122002306E000224FF030
:10045000004302E06FF0010253101AEB06004CEB70
:10046000085110EB0A0041EB0B01BDE8F04D00F024
:1004700073B8C1F30A5210B5C1F3130140F2FF3350
:1004800041F480119A4201DA002010BD40F233435A
:100490009A42A2F2334203DC524200F03BF810BD14
:1004A000904010BD00F0004230F000400AD0C10D75
:1004B00001F56071C0F3160042EA0151C20840071D
:1004C0001143704700200146704730B50B46014686
:1004D00000202022012409E021FA02F59D4205D3E3
:1004E00003FA02F5491B04FA02F52844151EA2F18D
:1004F0000102F1DC30BD202A04DB203A00FA02F1CF
:10050000002070479140C2F1200320FA03F3194301
:1005100090407047202A04DB203A21FA02F00021A3
:10052000704721FA02F3D040C2F120029140084303
:1005300019467047202A06DBCB17203A41FA02F011
:1005400043EAE07306E041FA02F3D040C2F1200230
:10055000914008431946704710B5141E73F100040A
:1005600008DA401C41F1000192185B411A4301D1A5
:1005700020F0010010BD2DE9F04D92469B4611B1CF
:10058000B1FA81F202E0B0FA80F220329046FFF731
:10059000B2FF04460F4640EA0A0041EA0B01534607
:1005A0005A46084313D0114653EA010019D0C8F146
:1005B00040025046FFF7AEFF05460E4650465946EC
:1005C0004246FFF798FF084305D0012004E020468B
:1005D0003946BDE8F08D0020054346EAE0762C431D
:1005E00037430A986305E40AA0EB08000022FD0ADD
:1005F00044EA47540A3002D500200146E9E70105E4
:1006000010196941DDE9084500196941BDE8F04D5F
:10061000A2E72DE9FE4F81EA030404F0004421F033
:10062000004100944FF0000B23F0004350EA010416
:100630005ED052EA03045BD0C3F30A54C1F30A55F7
:100640002C44A4F2F3340194A0FB0254C1F313012F
:1006500041F48011C3F3130343F4801301FB0244FC
:1006600000FB034E840A970A44EA815447EA835701
:10067000A4FB076802958D0A05FB07854FEA932CBA
:1006800004FB0C542705029D4FEA065847EA16372B
:10069000B5EB08056EEB070C870E920E47EA811743
:1006A00042EA8312A7FB0201B6EB0B0164EB0004E4
:1006B0002B0D43EA0C335E1844EB1C50DA465146CE
:1006C000E7FB0201C5F313044FEA0B3343EA14536B
:1006D0004FEA0432019C43EA0603A4F10C0402949D
:1006E000009CCDE900B4FFF746FF03B0BDE8F08FF2
:1006F00000200146F9E7C1F30A52C1F3130140F2A9
:10070000FF3341F480119A4202DA0020014670471B
:1007100040F233439A42A2F2334202DC5242FFF7E4
:10072000F9BEFFF7E8BE000030B5041E71F1000409
:1007300004DB4FF00044404264EB0101141E73F1EE
:10074000000405DB1C464FF00043524263EB0403F8
:10075000994208BF904230BD064C074D06E0E06864
:1007600040F0010394E8070098471034AC42F6D3F8
:10077000FFF70EFD1831000838310008FEE770471A
:10078000704790F83510022903D08021416501207F
:100790007047052180F835100068016821F00101DB
:1007A00001600020704700002DE9F84F00224FF053
:1007B000010803254FF00F0E0B6808FA02F42340DE
:1007C000A3426ED14E68012E05D0022E03D0112E09
:1007D00001D0122E12D186684FEA420C05FA0CF7AE
:1007E000BE43CF6807FA0CF7374387604668A643D5
:1007F0000C79C4F30014944034434460C668570035
:1008000005FA07FC8C6826EA0C06BC403443C46039
:100810004C68022C01D0122C13D1D40800EB8404B4
:10082000A346D4F8209054074FEAD46A0EFA0AF689
:1008300029EA06090E6906FA0AF646EA0906CBF81D
:10084000206006680C7926EA0C0604F00304BC401C
:10085000344304604C68E40065D5364C266846F4A1
:1008600080462660246822F0030604F48044009445
:10087000314C3444A446D4F808489607370F0EFA92
:1008800007F6B4432D4EB04201D1002624E02C4E91
:10089000B04201D101261FE02A4EB04202D1022609
:1008A0001AE040E0284EB04201D1032614E0274E62
:1008B000B04201D104260FE0254EB04201D10526F9
:1008C0000AE0244EB04201D1062605E0224EB04295
:1008D00001D1072600E00826BE402643CCF8086870
:1008E0001E4E34684F689C43FF0300D51C433460A0
:1008F0001A4C241D26684F689E43BF0300D51E4333
:100900002660164E083634684F689C43FF0200D5B7
:100910001C433460114E0C3634684F689C43BF0250
:1009200000D51C433460521C102AFFF445AFBDE8CB
:10093000F88F0000443802400030014000000240BF
:100940000004024000080240000C02400010024077
:100950000014024000180240001C0240003C01400C
:100960000AB1816170470904FBE700000148806813
:10097000704700004C00002070B5040025D094F8AA
:100980003D00002520B984F83C50204600F0B8F81E
:10099000242084F83D002068016821F001010160F5
:1009A0002068016841F4004101602068016821F479
:1009B0000041016000F00CFA4D4A6168914201D893
:1009C0004C4900E04C49884201D2012070BD4B499E
:1009D0002368B0FBF1F15E6826F03F060E435E60CF
:1009E0006368934206D94FF4967359434FF47A7370
:1009F000B1FBF3F12368491C1E6A26F03F06314320
:100A000019626168914210D84900401EB0FBF1F2B2
:100A1000521CC2F30B02042A01D2042022E0B0FBD4
:100A2000F1F0401CC0F30B001CE0A268F2B301EB34
:100A3000C10303EB0116431EB3FBF6F35B1C43F447
:100A400080431B0549D092B301EBC10202EB0111B7
:100A5000401EB0FBF1F0401CC0F30B0040F480409E
:100A600040F400402168CA694CF6FF739A43104372
:100A7000C861D4E9071001432068026822F0C0026F
:100A800011430160D4E9030101432068826848F200
:100A9000FF339A4311438160D4E90501084321687B
:100AA000CA6822F0FF021043C86001E00EE016E0C1
:100AB0002068016841F0010101602564202084F86C
:100AC0003D00256384F83E50002070BD01EB4106D7
:100AD000431EB3FBF6F35B1CB3E70120C2E701EB57
:100AE0004101401EB0FBF1F0401CC0F30B00B7E722
:100AF000A086010080841E0000093D0040420F00D6
:100B000010B586B0044614216846FFF791FB1349DF
:100B10002068884220D11248016841F0020101603A
:100B20000068694600F002000590C0200090122085
:100B300001900120029003200390042004900948B2
:100B4000FFF732FE06481030016841F400110160E1
:100B5000006800F40010059006B010BD005400407D
:100B60003038024000040240024881680278114493
:100B7000816070474C0000200B4810B5016841F4BB
:100B800000710160016841F480610160016841F415
:100B900080710160032000F06FF8002000F006F87B
:100BA00000F024F8002010BD003C024070B50D4D4F
:100BB00004464FF47A712878B1FBF0F00A490968CD
:100BC000B1FBF0F000F004FB48B9102C07D2002272
:100BD0002146501E00F030F800206C6070BD0120EE
:100BE00070BD00004C000020580000200A4808B5E5
:100BF000016841F480410160006800F48040009089
:100C00000548001F016841F080510160006800F054
:100C10008050009008BD000044380240002809DBE5
:100C200000F01F02012191404009800000F1E02006
:100C3000C0F8001170470000F0B40E4B1B680C4662
:100C4000C3F30223C3F10705042D00D90425191DA0
:100C5000072901D2002300E0DB1E012606FA05F178
:100C6000491E214099409E40761E16403143F0BCFB
:100C700001F0A6BC0CED00E0064900F00702086890
:100C80004FF6FF03184040EA0220034A1043086071
:100C9000704700000CED00E00000FA052DE9F04778
:100CA0000E46050065D0DFF81481D8F80000F7B2D1
:100CB00000F00F00B04207D288F80070D8F80000AA
:100CC00000F00F00B04254D128683D4C810712D586
:100CD000400703D5206840F4E050206028780007E2
:100CE00003D5206840F4604020602068A96820F0A7
:100CF000F000084320602878C0072DD0304968688C
:100D00000839012812D0022813D0032811D009680D
:100D1000890700292DDA216821F0030101432160B0
:100D2000FFF724FE814641F2883A0EE00968890304
:100D3000EFE709688901ECE7FFF718FEA0EB09016E
:100D4000514502D90320BDE8F0872068696800F0AA
:100D50000C00B0EB810FEFD1D8F80010404601F045
:100D60000F01B14207D90770006800F00F00B042D0
:100D700001D00120E7E72878400705D52068E96819
:100D800020F4E050084320602878000706D520684A
:100D9000296920F4604040EAC100206000F038F882
:100DA0002168084AC1F30311515CC8400649086034
:100DB00006480068FFF7FAFE0020C4E7003C024046
:100DC0000838024000310008580000205000002080
:100DD0000448054900680968044AC1F38221515C4E
:100DE000C840704758000020083802401031000801
:100DF0000448054900680968044AC1F34231515C5E
:100E0000C8407047580000200838024010310008E0
:100E1000154810B5006810F00C02144813D014499E
:100E2000042A0FD0082A0ED10F4C241F22682368F1
:100E300002F03F025B0207D52068C0F38810A0FBD8
:100E4000010106E0084610BD2168C1F38811A1FB2D
:100E500000010023FFF7B4F92168C1F30141491CE7
:100E60004900B0FBF1F010BD083802400024F40046
:100E700040787D012DE9F84F04006ED02078DFF82E
:100E80003C93C007A9F104054AD009F104000168A8
:100E9000C1F38101012908D00068C0F38100022854
:100EA0000AD1D9F80000400206D52868800337D55A
:100EB00060680028E1D033E06068B0F5803F10D072
:100EC000B0F5A02F286810D020F480302860286862
:100ED00020F4802028606068A8B1FFF747FD06462F
:100EE0000DE0286840F48030F4E740F4802028606A
:100EF000F7E700BFFFF73AFD801B642873D8286826
:100F00008003F7D50CE0FFF731FD064605E000BF92
:100F1000FFF72CFD801B6428F0D828688003F7D4E5
:100F20002078DFF89C8280074FF0000A3ED5A34866
:100F3000001D016811F00C0F08D00068C0F381009B
:100F400002280BD1D9F80000400207D42868800796
:100F500016D5E068012800D112E02BE1E068B8B1B5
:100F60000120C8F80000FFF701FD064605E000BFBC
:100F7000FFF7FCFC801B0228C0D828688007F7D543
:100F80002868216920F0F80040EAC10028600DE0DF
:100F9000C8F800A0FFF7EAFC064604E0FFF7E6FC0D
:100FA000801B02281FD828688007F7D42078000704
:100FB00022D5824E83486169703671B1012101608A
:100FC000FFF7D4FC074604E0FFF7D0FCC01B022863
:100FD00009D830688007F7D50EE0C0F800A0FFF709
:100FE000C5FC074605E082E0FFF7C0FCC01B0228F5
:100FF0007DD830688007F7D42078400768D5DFF8BF
:10100000BCB100270BF13C0BDBF80000C0000BD497
:10101000DBF8001041F08051CBF80010DBF8000045
:10102000012700F080500090674E3068C00510D452
:10103000306840F480703060FFF798FC009005E065
:10104000FFF794FC0099401A022850D83068C00578
:10105000F6D55A4EA0686C3601280FD005283068A6
:1010600010D020F001003060306820F004003060C3
:10107000A068B8B1FFF77AFC00900FE0306840F04C
:101080000100F4E740F004003060F7E7FFF76EFC82
:101090000099411A41F28830814266D83068800751
:1010A000F4D50EE0FFF762FC009007E0FFF75EFC6E
:1010B0000099411A41F28830814256D83068800741
:1010C000F4D42FB1DBF8001021F08051CBF80010E0
:1010D000A069C8B33949091D0968C1F38101022912
:1010E0004AD00228504607D0C8F8600000E03CE033
:1010F000FFF73CFC04463BE04746C8F86000FFF7BA
:1011000035FC064605E000BFFFF730FC801B0228D7
:101110002BD828688001F7D4D4E907010843A16AD5
:101120002A4A490802EB0141626A41EA82110843F6
:1011300094F82C1040EA0161C9F8001001203866CB
:10114000FFF714FC044606E036E000BFFFF70EFC94
:10115000001B022809D828688001F7D52CE000BFC1
:10116000FFF704FC001B022802D90320BDE8F88F1A
:1011700028688001F4D41FE00128F7D0D9F80000D6
:10118000E26900F48001914214D1226A00F03F012B
:1011900091420FD147F6C071626A0140914209D174
:1011A000A26A00F44031914204D1E16A00F070601B
:1011B000884201D00120D9E70020D7E70438024057
:1011C00000004742800E4742007000400000FFFFD1
:1011D00010B5401EB0F1807F01D3012010BD4FF04B
:1011E000E02460610F21601701F0EAF90020A0619E
:1011F00007202061002010BD7047704770B590F83F
:101200003C20012A32D0012480F83C40022280F8A0
:101210003D2003685A689D6822F070060A683243D0
:101220005A60134B02689A4214D0B2F1804F11D029
:10123000104B9A420ED0104B9A420BD00F4B9A4251
:1012400008D00F4B9A4205D00E4B9A4202D00E4B5B
:101250009A4204D1496825F080031943916080F8CF
:101260003D40002180F83C10084670BD022070BD52
:10127000000001400004004000080040000C004055
:1012800000040140004001400018004010B5040077
:1012900003D094F83D0010B107E0012010BD0020FC
:1012A00084F83C00204600F00DF8022084F83D0050
:1012B000211D206800F04AFE012084F83D00002036
:1012C00010BD000008B500680B49884212D10B48D8
:1012D000016841F0010101600068002200F0010096
:1012E000009011461820FFF7A7FCBDE80840182021
:1012F000FFF794BC08BD00000000014044380240E4
:101300000168CA6842F00102CA600068816801F0A1
:101310000701062903D0016841F0010101600020A6
:10132000704770B5044690F83C00012817D001259D
:1013300084F83C50022084F83D002068826822F046
:10134000770222F47F4282600868502830D00DDC9A
:1013500020284DD005DC98B310283BD148E002206E
:1013600070BD302844D0402834D139E0602828D0DE
:10137000702806D0B0F5805F2CD0B0F5005F29D181
:101380000AE0CB68D1E90121206800F050FE206816
:10139000816841F0770109E0CB68D1E9012120683B
:1013A00000F045FE2068816841F48041816011E0D1
:1013B000CA684968206800F00FFF5021206807E0E4
:1013C00016E0CA684968206800F017FF60212068AD
:1013D00000F037FE84F83D50002084F83C0070BDDA
:1013E000CA684968206800F0F7FE40212068EFE7EE
:1013F000226801461046EBE7704770B50446006866
:1014000001694FF00005C943890715D4C168C94374
:10141000890711D4E91E01610120207720688069C5
:101420008007204602D0FFF7E7FF04E000F0D6F87F
:10143000204600F077F9257720680169C9434907FC
:1014400017D4C168C943490713D46FF0040101617F
:10145000022020772068806910F4407F204602D067
:10146000FFF7CAFF04E000F0B9F8204600F05AF98F
:10147000257720680169C943090716D4C168C943A3
:10148000090712D46FF00801016104202077206859
:10149000C0698007204602D0FFF7AEFF04E000F0ED
:1014A0009DF8204600F03EF9257720680169C94380
:1014B000C90617D4C168C943C90613D46FF0100117
:1014C0000161082020772068C06910F4407F204621
:1014D00002D0FFF791FF04E000F080F8204600F012
:1014E00021F9257720680169C943C90708D1C16876
:1014F000C943C90704D1891E0161204600F036F9AD
:1015000020680169C943090609D4C168C9430906AD
:1015100005D46FF0800101612046FFF76DFE206861
:101520000169C943490609D4C168C943490605D4BC
:101530006FF040010161204600F02CF9206801693C
:10154000C94389060BD4C168C943890607D46FF023
:10155000200101612046BDE87040FFF74EBE70BD1E
:1015600030B587B0044614216846FEF761FE246852
:10157000154D0023154802210122AC420ED104680A
:1015800044F001040460006800F001000590402070
:101590008DE80F00049169460D4810E00D4DAC42F6
:1015A0000FD1046844F008040460006800F00800EB
:1015B0000590A8148DE80F00049169460648FFF7CE
:1015C000F3F807B030BD000000040040303802409E
:1015D0000000024000080040000C0240704770B557
:1015E000044690F83C000D4601280DD0012684F8F1
:1015F0003C60022084F83D0042B1042A18D0082A39
:101600002AD00C2A4DD139E0022070BD206800F0AC
:1016100021FD2068816941F00801816120688169AC
:1016200021F004018161206881692A69114311E078
:10163000206800F03FFD2068816941F4006181610C
:101640002068816921F480618161206881692A694B
:1016500041EA0221816124E0206800F061FD2068F8
:10166000C16941F00801C1612068C16921F004012C
:10167000C1612068C1692A69114311E0206800F046
:1016800083FD2068C16941F40061C1612068C169BE
:1016900021F48061C1612068C1692A6941EA02219F
:1016A000C16184F83D60002084F83C0070BD10B535
:1016B000040003D094F83D0010B107E0012010BDF4
:1016C000002084F83C00204600F00CF8022084F84A
:1016D0003D00211D206800F039FC012084F83D0008
:1016E000002010BD08B50C4A01680C48914207D192
:1016F000016841F002010160006800F0020009E0A9
:10170000074A914207D1016841F004010160006875
:1017100000F00400009008BD000400404038024082
:10172000000800407047000010B504460068012220
:1017300000F070FC0B492068884202D00A498842B8
:1017400003D1416C41F4004141642068816801F09B
:101750000701062903D0016841F001010160002062
:1017600010BD00000000014000040140074908B519
:10177000884209D106A00068009001F04FFC0128C2
:1017800002D1684600F036FB08BD0000B001002021
:10179000050500007047704770B502680446106880
:1017A000D168536910F00F0F52D003F0010501F416
:1017B00090762E435FD0C20705D0CA0503D5E26BF1
:1017C00042F00102E263420705D5DA0703D0E26B7B
:1017D00042F00202E263820705D5DA0703D0E26B2A
:1017E00042F00402E263020707D501F020022A4317
:1017F00003D0E26B42F00802E263E26B002A33D0CE
:10180000800604D5880602D5204600F01EFD20681B
:101810004069E16BC0F38010090700D428B320466B
:1018200000F005FD2068416949061AD5416921F09B
:1018300040014161606BA0B11B490165606BFEF71F
:10184000A0FF002810D0606B016DBDE87040084714
:10185000830610D58B060ED52046BDE8704000F0FB
:10186000F4BC2046FFF797FF70BD2046FFF793FFBB
:101870000020E06370BD030606D50B0604D52046A4
:10188000BDE8704000F0C0BD4006F3D54806F1D574
:10189000D168204621F04001D160202184F8391020
:1018A00000F039F970BD00001F22000870B5040077
:1018B00004D094F83900002510B106E0012070BD75
:1018C00084F83850204600F023F8242084F83900AA
:1018D0002068C16821F40051C160204600F000FD7D
:1018E0002068016921F4904101612068416921F07B
:1018F0002A0141612068C16841F40051C160E5637B
:10190000202084F8390084F83A00002070BD0000DF
:1019100070B586B0044614216846FEF789FC274E50
:10192000226800252648022103230724B24224D13D
:10193000234A1432166846F010061660126802F048
:1019400010020592026842F001020260006800F095
:101950000100059058028DE82300CDE90334694663
:101960001848FEF721FF002211462520FFF764F9F1
:101970002520FFF753F906B070BD134DAA42FAD1E6
:101980000F4A1032156845F400351560126802F4EC
:1019900000320592026842F008020260006802AA62
:1019A00000F0080005906020CDE9000182E81A00EF
:1019B00069460648FEF7F8FEDDE70000001001402A
:1019C000303802400000024000440040000C024059
:1019D00090F83A30202B22D1F9B1F2B190F838309A
:1019E000012B1CD081628285C2850021C163222225
:1019F00080F83A2080F838100168CA6842F4807292
:101A0000CA6001684A6942F001024A610068C1681F
:101A100041F02001C1600020704701207047022082
:101A20007047000010B50068084988420DD1084889
:101A3000007801F079FA012205490648FFF7C8FF4E
:101A4000BDE8104004A000F0ABBD10BD0010014087
:101A50004A00002070020020313100002DE9F843D7
:101A6000044690F839001F4616460D46202850D1EE
:101A7000B5B1AEB194F8380001284AD0012084F8FD
:101A800038004FF00008C4F83C80212084F8390069
:101A9000FEF76CFFA6848146E68484F8388026E051
:101AA0000120BDE8F883E08C401EE084A0684B462E
:101AB000B0F5805F4FF000024FF0800120460097A4
:101AC00003D000F0D2FCE8B90DE000F0CEFCC8B9BC
:101AD00028882168C0F308004860206908B16D1C9F
:101AE00005E0AD1C03E0216815F8010B4860E08CAF
:101AF0000028D8D14B46002240212046009700F014
:101B0000B4FC08B10320CCE7202084F83900002081
:101B1000C7E70220C5E77047FEE700002DE9F04760
:101B200086B014216846FEF783FB2F480024016825
:101B300041F080010160016801F0800105910168B8
:101B400041F001010160016801F0010105910168A6
:101B500041F004010160016801F004010591016890
:101B600041F008010160016801F008010591016878
:101B700041F0020101600068DFF8708000F00200AF
:101B800005900022B0214046FEF7EAFEDFF86090A3
:101B9000002210214846FEF7E3FEDFF858A04FF47C
:101BA000D847002239465046FEF7DAFEB02001251C
:101BB000022603948DE8610069464046FEF7F4FD75
:101BC000102003948DE8610069464846FEF7ECFD5D
:101BD000CDE90264CDE9007569465046FEF7E4FDA3
:101BE00006B0BDE8F0870000303802400000024037
:101BF00000080240000C02400D4810B50B4901607E
:101C00000C49416000214FF480428160C0E9031219
:101C100041618161C1610162FEF7AEFE002803D01F
:101C2000BDE81040FEF7ACBD10BD00000054004000
:101C30005C010020A086010010B586B00024174882
:101C40000094019402940394049413490594016050
:101C5000A721C0E901146321C0E903144461846130
:101C6000FFF714FB08B1FEF78BFD4FF48050009096
:101C700069460A48FFF755FB08B1FEF781FD049459
:101C800004A906480594FFF7B9FA002801D0FEF729
:101C900077FD06B010BD000000000140B00100203B
:101CA00010B58AB0002407941C2168460894FEF7FA
:101CB000BFFA16481449C0E900144FF6FF71C0E995
:101CC000024104618461FFF7F2FC08B1FEF758FDA0
:101CD000079407A90D480894FFF790FA08B1FEF79A
:101CE0004FFD6020CDE900040294002269460748B8
:101CF0000494FFF774FC08B1FEF742FD0348FFF7B8
:101D00002FFC0AB010BD000000040040F0010020CC
:101D100010B58AB0002407941C2168460894FEF789
:101D200087FA16481449C0E900144FF6FF71C0E95C
:101D3000024104618461FFF7BAFC08B1FEF720FD9F
:101D4000079407A90D480894FFF758FA08B1FEF761
:101D500017FD6020CDE9000402940022694607487F
:101D60000494FFF73CFC08B1FEF70AFD0348FFF7B7
:101D7000F7FB0AB010BD0000000800403002002050
:101D80000C4810B50A4901604FF4E131416000216F
:101D900081600C22C160C0E904128161C161FFF75A
:101DA00085FD002803D0BDE81040FEF7E9BC10BD5A
:101DB00000100140700200200C4810B50A49016073
:101DC0004FF4E1314160002181600C22C160C0E923
:101DD00004128161C161FFF769FD002803D0BDE8ED
:101DE0001040FEF7CDBC10BD00440040B002002002
:101DF000FEE770472DE9F041DFF890800646444643
:101E0000D8F81000FEF74EFB94ED081B53EC112B95
:101E1000FEF7BAFAFEF72DFBC5B2E068FEF742FB0B
:101E200094ED061B53EC112BFEF7AEFAFEF721FBE7
:101E30003178C0B24D1B7178A1EB0006207928449F
:101E4000C0EB00104FEA40604FEA1067207A304440
:101E5000C0EB00104FEA40604FEA106401D401204B
:101E600000E0002000F03CFB002E01DB012000E040
:101E7000002000F065FB06480068476305480068DD
:101E80004463C8E90156BDE8F0810000000000206D
:101E9000F00100203002002070477047FEF764BE5A
:101EA00030B593B030216846FEF7C2F914210CA872
:101EB000FEF7BEF919480025016841F08051016024
:101EC000006800F0805011901548016841F480418D
:101ED00001600068022400F480401190012003900A
:101EE00010200490009406940820CDE90750A82003
:101EF000CDE9090404200B906846FEF7BBFF0CA94E
:101F00000F2081E831004FF4A0500F90E0021090B4
:101F100005210CA8FEF7C2FE13B030BD40380240C8
:101F2000007000400548016841F4700101600349F8
:101F30004FF00060803908607047000088ED00E0D5
:101F40000148FFF75ABA0000B0010020F0B502685E
:101F5000254C264D264E274F274B4FF0804CA04254
:101F600009D0604507D0A84205D0B04203D0B8429E
:101F700001D0984204D122F0700E4A6842EA0E0263
:101F8000A0421BD0604519D0A84217D0B04215D04E
:101F9000B84213D0984211D0184DA8420ED0184D17
:101FA000A8420BD0174DA84208D0174DA84205D023
:101FB000164DA84202D0164DA84203D122F4407516
:101FC000CA682A434D6922F080022A4302608A6867
:101FD000C2620A688262A04201D0984201D10969B6
:101FE000016301214161F0BD000001400004004097
:101FF00000080040000C0040000401400040014087
:10200000004401400048014000180040001C00400E
:102010000020004010B501F01F030121046A99401F
:102020008C430462016A9A401143016210BD10B5ED
:10203000846842EA032224F47F440A4322438260F4
:1020400010BD826822F070020A4342F007018160ED
:1020500070470000F0B5026A22F001020262036AD2
:1020600042688469124E24F073050C682C4323F0F7
:1020700002058B682B430D4DA84201D0B04205D11B
:1020800023F00807CB683B4323F00403A84201D0A8
:10209000B04205D14D6922F4407215438A692A4342
:1020A00042608461496841630362F0BD0000014001
:1020B00000040140F0B5026A22F010020262026AD6
:1020C000436884690D6824F4E64444EA05248D6875
:1020D00022F0200242EA05120F4D104EA84201D014
:1020E000B04206D1CF6822F0800242EA071222F005
:1020F0004002A84201D0B04207D14D6923F44063A9
:1021000043EA85038D6943EA850343608461496836
:1021100081630262F0BD0000000001400004014044
:10212000F0B5026A22F480720262026A4368C469EE
:1021300022F4007224F073050C68124E2C438D6853
:1021400042EA05220E4DA84201D0B04206D1CF6826
:1021500022F4006242EA072222F48062A84201D0FF
:10216000B04207D14D6923F4405343EA05138D690A
:1021700043EA05134360C4614968C1630262F0BD6C
:10218000000001400004014030B5026A22F4805290
:102190000262046A4268C3690D6823F4E64343EAB5
:1021A00005238D6824F4005444EA0534084DA84200
:1021B00002D0084DA84204D14D6922F4804242EA7F
:1021C00085124260C36149680164046230BD000049
:1021D000000001400004014010B5036A046A24F0C5
:1021E00001040462846924F0F00444EA021423F038
:1021F0000A020A438461026210BD10B5036A23F02B
:10220000100303628369046A23F4704343EA0232D1
:1022100024F0A00343EA01118261016210BD10B5F0
:10222000806B0021C185C184FFF7B5FA10BD01683C
:10223000CA6822F49072CA6001684A6922F00102F9
:102240004A61202180F83A10704710B590F83A1092
:10225000222901D0022010BD8168B1F5805F11D024
:102260000169002901681FD0496801F07F03816A74
:102270004A1C82620B70C18D491E0904090CC1857C
:1022800018D02BE00269816A002A0268526805D0E2
:10229000D2B20A80816A491C8162ECE7C2F308026B
:1022A0000A80816A891CF7E74A68816A4B1C83624D
:1022B0000A70E0E70168CA6822F02002CA6001687B
:1022C000CA6822F48072CA6001684A6922F0010279
:1022D0004A61202180F83A10FFF7A4FB002010BDCE
:1022E0002DE9F041044600680169E26821F440519B
:1022F000114301612169A068E269084361691143E2
:1023000008432168CA6849F20C639A430243CA60D1
:1023100020684169A26921F4407111434161E0697B
:10232000192764253226B0F5004F354A3549206813
:102330004FF0000806D0884201D0904236D1FEF717
:1023400057FD35E0884201D0904202D1FEF750FDA2
:1023500001E0FEF73DFD61684A18A0FB070148EB6C
:102360000803FDF72DFF0146B0FBF5F00201B1FBBC
:10237000F5F06FF01803584301EB800006EBC00046
:10238000B0FBF5F000F0F80002EB4002B1FBF5F015
:10239000584301EB800006EBC000B0FBF5F000F005
:1023A0000700216810448860BDE8F081FEF710FD49
:1023B00061688B0F8A00A0FB0701FDF701FF014652
:1023C000B0FBF5F06FF01802504301EB800006EB14
:1023D0000010B0FBF5F000F0F002B1FBF5F002EBFD
:1023E0000012B1FBF5F06FF01803584301EB8000C9
:1023F00006EB0010B0FBF5F000F00F00D1E7000095
:10240000001401400010014090F83910212901D03A
:10241000022070478168B1F5805F016A0BD04A1CC9
:102420000262026809785160C18C491E0904090CD6
:10243000C1840ED017E009880268C1F30801516019
:1024400001690029016A02D0491C0162ECE7891C7C
:10245000FBE70168CA6822F08002CA600068C168B0
:1024600041F04001C160002070472DE9F0419846DD
:1024700017460E460446069D1DE0681C1BD02DB174
:10248000FEF774FAA0EB0800A84214D92068C168CE
:1024900021F4D071C1602068416921F001014161DE
:1024A000202084F8390084F83A00002084F83800AD
:1024B0000320BDE8F0812068006836EA000004D0FF
:1024C0000020B842D9D00020F3E70120F9E700004E
:1024D0000148FFF761B9000070020020FEE700002C
:1024E00070B5154C154D80B1012210212046FEF724
:1024F00037FA002220212046FEF732FA00228021FE
:102500002046FEF72DFA01220FE00022102120467E
:10251000FEF726FA012220212046FEF721FA0122A9
:1025200080212046FEF71CFA00222846BDE87040B4
:102530001021FEF715BA000000000240000802401A
:102540002DE9F0414FF48061144C4D00CE000F0195
:1025500078B101222046FEF703FA002229462046E0
:10256000FEF7FEF9002231462046FEF7F9F9012276
:102570000EE000222046FEF7F3F90122294620460C
:10258000FEF7EEF9012231462046FEF7E9F9002276
:1025900039462046BDE8F041FEF7E2B9000C0240A2
:1025A0000FB4054B10B503A9044A029800F0EAF8ED
:1025B00010BC5DF814FB0000912F00085C000020A7
:1025C0000907090E002804DB00F1E02080F8001460
:1025D000704700F00F0000F1E02080F8141D7047F4
:1025E00002E008C8121F08C1002AFAD170477047DC
:1025F000002001E001C1121F002AFBD1704700003A
:102600002DE9FF5F82B00021DDE90430020DDDF825
:1026100040B0034318D044F61050A2F2FF324243B8
:102620001514119801281FD0A5EB0B00401C5FEA80
:10263000000A4FF000064E4FDFF83891B046504682
:1026400015D5CAF1000413E0119801244AA301280A
:1026500001D16FEA0B010298119AC0E90031C0E97B
:10266000024206B0BDE8F09FCBF10000DFE7044670
:102670000021404A491842EB0450CDE9001012E015
:10268000E00707D032463B4640464946FDF7C1FFCA
:102690008046894632463B4610461946FDF7B9FF4B
:1026A00006460F466410002CEAD1DDE90401DDE99D
:1026B0000023BAF1000F06DAFDF7ABFF42464B46A6
:1026C000FDF7A7FF05E0FDF765FE42464B46FDF727
:1026D00061FE04460E460022284BFEF725F803D87B
:1026E0004FF0FF30014607E00022254B20463146DF
:1026F000FDF7A9FDFDF7FFFF102409E0002C0ADB20
:102700000A220023FDF75CFD039B30321A55641E3C
:1027100050EA0102F2D1641C039AC4F1110314447B
:10272000119A012A03D0012208430DD10AE008437F
:1027300004D000204FF0110B119072E7A3EB0B05B2
:102740006D1E0DE05B4504DD4FF0000205F1010553
:1027500004E003DA4FF00002A5F10105002AECD0F5
:1027600002981199C0E90231C0E9004579E70000FB
:10277000000014400000F03F300000000000F04373
:102780000000E03F2DE9FF4F95B09B468946064685
:1027900000250FE2252877D100242746F84A012199
:1027A000059400E0044316F8013F203B01FA03F0D2
:1027B0001042F7D130782A2811D06FF02F033078EB
:1027C000A0F13002092A16D8059A44F0020402EB5F
:1027D000820203EB42021044761C0590EFE759F8A1
:1027E000042B0592002A03DA504244F40054059069
:1027F00044F00204761C30782E2816D116F8010F0A
:1028000044F004042A280DD06FF02F023078A0F194
:102810003003092B09D807EB870302EB4303C718E2
:10282000761CF3E759F8047B761C30786C280FD0BF
:1028300006DC4C2817D068280DD06A2814D104E093
:10284000742810D07A280FD10DE044F400140AE067
:1028500044F4801401E044F440147278824202D1BE
:1028600004F58014761C761C307866280BD013DCB7
:10287000582877D009DC002875D04528F6D046289E
:10288000F4D047281AD19DE118E0632835D0642898
:1028900079D0652812D195E1702873D008DC6728BB
:1028A000F1D069286FD06E280DD06F2806D1B5E021
:1028B00073282CD0752875D0782874D05A4617996B
:1028C00090476D1C75E1C4F30250022809D003281B
:1028D0000DD0D9F8001004280DD00D6009F10409BD
:1028E00067E1D9F80010EA17C1E90052F6E7D9F814
:1028F00000100D80F2E70D70F0E719F8041B8DF859
:10290000001000208DF80100EA46012003E059F88C
:1029100004AB4FF0FF3061074FF0000102D40DE02F
:1029200008F101018846B9420FDA8045F8DB1AF850
:1029300008100029F4D108E008F10101884681421D
:10294000FADB1AF808100029F6D105985B46A0EBCF
:10295000080721463846179A00F094FA284400EBFD
:10296000080507E04DE029E10DE01AF8010B5A4691
:1029700017999047B8F10108F7D25B4621463846CF
:10298000179A13E142E00A220092C4F302524FF078
:10299000000A022A08D059F804CB032A4FEAEC7146
:1029A0000AD00DE029E02AE009F1070121F0070231
:1029B000F2E802C1914609E00FFA8CFC4FEAEC7193
:1029C000042A03D14FFA8CFC4FEAEC71002907DA94
:1029D0000A460021DCF1000C61EB02012D2202E02D
:1029E000220504D52B228DF80420012203E0E20702
:1029F00001D02022F7E7904659E00A2102E0102298
:102A00000DE010214FF0000A00910BE010224FF072
:102A1000000A44F004040827009203E008224FF063
:102A2000000A0092C4F30252022A05D059F804CBDE
:102A30000021032A08D009E009F1070121F007026B
:102A4000F2E802C1914605E01FFA8CFC042A01D18C
:102A50000CF0FF0C4FF00008220728D5702806D094
:102A6000009B83F0100353EA0A0305D00EE04022D6
:102A70008DF80420012208E05CEA010206D0302231
:102A80008DF804208DF8050002229046009B83F00B
:102A9000080353EA0A030AD15CEA010201D1620782
:102AA00005D530228DF804204FF001087F1E5828EC
:102AB00004D034A003900EA802900DE036A0F9E7F0
:102AC00053466046009AFDF77BFB84460398825C80
:102AD0000298401E029002705CEA0100F0D1029858
:102AE00006A9081A00F1200A600702D524F48034F0
:102AF00000E00127574502DDA7EB0A0000E00020B7
:102B000000EB0A01009005984144401A0590E0034B
:102B100006D45B462146179A059800F0B3F90544A0
:102B2000002706E001A85A46C05D179990476D1C22
:102B30007F1C4745F6DBE0030CD55B462146179A20
:102B4000059800F09FF9054404E030205A46179993
:102B500090476D1C0099481E00900029F5DC08E0A4
:102B6000029802995A460078491C02911799904799
:102B70006D1CBAF10001AAF1010AF1DC65E1000067
:102B80000928010030313233343536373839616243
:102B90006364656600000000303132333435363707
:102BA00038394142434445460000000000F058F9DE
:102BB0000544761C307800287FF4ECAD19B0284627
:102BC000BDE8F08F620700D4062709F1070222F062
:102BD000070CFCE80223E14603F000485FEA080C1A
:102BE00002D00FF2702C0DE05FEA045C02D50FF208
:102BF000682C07E05FEAC47C02D00FF2602C01E091
:102C0000AFF2700C4FF0FF3823F00043CDF850C006
:102C100065280CD006DC452809D046281DD0472859
:102C20003DD13DE0662818D067287ED138E00021EC
:102C3000112F01DB112000E0781CCDE9000106A96D
:102C40000EA8FFF7DDFCDDE90F010E9A03910021CC
:102C5000009207F1010A04914DE04FF00040009707
:102C6000CDE9011006A90EA8FFF7CAFCDDE90F02A5
:102C700003920E9B11990022DDF80CA000930492A0
:102C800011B9791C00EB010AB7EB0A0004D4C0F1BA
:102C9000FF3007F1010A0490AAEB0700019044E01D
:102CA000012F00DA01270021112F01DD112000E0A2
:102CB0003846CDE9000106A90EA8FFF7A1FCDDE921
:102CC0000F010E9A0391002104910092BA46210748
:102CD0000CD40399514500DA8A46BAF1010F05DD9B
:102CE000009AAAF10101515C302908D0B84202DAF9
:102CF00010F1040F06DA0121CDE9011015E0AAF167
:102D00000101E9E7002805DC049901440491AAEBDC
:102D1000000102E0411C514500DD8A460499401A39
:102D2000401C01904FF000400290200704D401980D
:102D3000504501DBCDF8048000208DF84F0002984B
:102D40000DF14F07B0F1004F25D02B200E900298C7
:102D50004FF0020800280CDA404202902D200E901D
:102D600007E00A210298FDF7B0FB3031029007F826
:102D7000011DB8F10001A8F10108F2DC0298002859
:102D8000EFD1791E0E980870307800F0200040F0E6
:102D9000450007F8020D12A8C01B00F1070814989F
:102DA000007800B1012000EB0A01019801EBE0710D
:102DB00005984144401A401E0590E00306D45B4646
:102DC0002146179A059800F05DF80544149800789C
:102DD00018B15A46179990476D1CE00324D55B46FD
:102DE0002146179A059800F04DF805441CE0049818
:102DF000002807DBDDE90301884203DD0098405C21
:102E0000179901E0179930205A469047049805F128
:102E10000105401C04900198401E019004D12E2011
:102E20005A46179990476D1CBAF10001AAF1010AA0
:102E3000DDDC05E017F8010B5A46179990476D1C29
:102E4000B8F10001A8F10108F4DC5B462146179AAD
:102E50000598ABE62D0000002B00000020000000CC
:102E60002DE9F041044600251E461746880404D487
:102E700005E039462020B0476D1C641EF9D5284670
:102E8000BDE8F0812DE9F041044600251E4690463C
:102E9000C80301D5302700E02027880404D505E0C9
:102EA00041463846B0476D1C641EF9D52846BDE83A
:102EB000F08100001648B0F9001000EE101A174912
:102EC000F8EEC00A9FED130A20EE801ADFED120A19
:102ED00021EE201A81ED001AB0F9021001EE101A4D
:102EE0000F49B8EEC11A21EE001A21EE201A81ED29
:102EF000001AB0F9040001EE100A0A48B8EEC11A2F
:102F000021EE000A20EE200A80ED000A7047000042
:102F10004200002000000038000034431000002070
:102F20000C00002014000020184A10B51649137830
:102F3000C8545B1CD8B210700C780023552C20D1DB
:102F40000B281FD34878512804D052280AD0532880
:102F500017D10FE051F8020FC2F802004868C2F81A
:102F600006000EE051F8020FC2F80A004868C2F8E5
:102F70000E0006E051F8020FC2F812004868C2F8CD
:102F80001600137010BD000060000020300000200B
:102F900038B504468DF800000A230122694602482C
:102FA000FEF75CFD204638BDB0020020FDF7E4FDD1
:102FB000FEF776FFFEF7B2FDFEF772FEFEF7A8FE03
:102FC000FEF71AFEFEF738FEFEF7DAFEFEF7F4FE15
:102FD0000D48FEF795F900210C48FEF7A5FB0021EE
:102FE0000B48FEF7A1FB094900200968486308491E
:102FF00009684863012207490748FEF7E9FC00BF5A
:10300000FFF758FFFCE70000B0010020F0010020AE
:10301000300200204A0000207002002070B5314CC0
:103020002DED028B82B02069FDF73CFA05460E4675
:10303000E068FDF737FA41EC100BCDE9005653EC90
:10304000102B29A0FFF7ACFA218841F28830814289
:103050001FD2E068FDF726FA94ED061B53EC112B06
:10306000FDF7F1F8C4E906012069FDF71BFA94EDBC
:10307000081B53EC112BFDF7E6F8C4E90801606961
:10308000FDF710FA94ED0A1B53EC112BFDF7DBF85A
:103090001EE024D194ED060B9FED178B51EC100B25
:1030A00053EC182BFDF776F9C4E9060194ED080BF3
:1030B00053EC182B51EC100BFDF76CF9C4E9080127
:1030C00094ED0A0B53EC182B51EC100BFDF762F941
:1030D000C4E90A01002002B0BDEC028B70BD0120E2
:1030E000F9E7000000000020703A252E326620200B
:1030F000723A252E32660000000000000088B340BE
:103100000000000000000000010203040607080997
:103110000000000001020304383100080000002014
:1031200060000000E02500089831000860000020E1
:1031300090060000F02500080000000000000000DC
:10314000000000000000000000000000000000007F
:10315000000000000000000000000000000000006F
:10316000000000000000000000000000000000005F
:10317000000000000000000000000000000000004F
:10318000000000000100000010000000000000002E
:083190000024F400000000001F
:040000050800018965
:00000001FF
